:020000040800F2
:10000000F804002059A50008DFF800F0250E0010C4
:10001000DFF800F01B0E0010DFF800F09302001074
:10002000DFF800F0DD010010DFF800F0170E00101F
:10003000DFF800F055020010DFF800F001030010B7
:10004000DFF800F04B0E0010DFF800F0210E00107A
:10005000DFF800F0A10D0010DFF800F0DD0F001058
:1000600030B5DFF8D44781B00120A060DFF8CC07BD
:100070002060256800F0A8F885421CBF20688047F2
:10008000DFF8BC070021016041600FF24D01816083
:100090000021C1600161416101B030BD30B5DFF8C0
:1000A000984781B00120A060DFF8900720602568A4
:1000B00000F08AF885421CBF20688047DFF880077F
:1000C0000021016041600FF24D0181600021C1609B
:1000D0000161416101B030BD00B5DFF85C0781B05E
:1000E00001218160DFF85C27DFF85C17016001689F
:1000F00091421CBF00688047DFF84407002101607F
:10010000416081600FF23531C160002101614161C0
:1001100001B000BD00B5DFF8200781B0012181608A
:10012000DFF82027DFF820170160016891421CBF2B
:1001300000688047DFF808070021016041608160A6
:10014000C16001610FF20901416101B000BD000011
:1001500000B5DFF8E40681B001218160DFF8E42614
:10016000DFF8E4160160016891421CBF0068804717
:10017000DFF8CC06002101600FF2DD214160002193
:100180008160C1600161416101B000BD00B5DFF86F
:10019000A80681B001218160DFF8A826DFF8A81643
:1001A0000160016891421CBF00688047DFF890063B
:1001B0000FF26D210160002141608160C160016129
:1001C000416101B000BD0000F0B5A0B0002300A95E
:1001D0004FF0FF3222FA03F404F0010441F8044B1B
:1001E0005B1C22FA03F404F0010441F8044B5B1C8D
:1001F00022FA03F404F0010441F8044B5B1C22FAD8
:1002000003F45B1C04F00104202B41F8044BE1D300
:100210000021DFF8382600AB9D6FDC6F5E6FAD0705
:1002200005EBC47505EB46751E6F05EB0675DE6EB6
:1002300005EBC6659E6E05EB86655E6E05EB466555
:100240001E6E05EB0665DE6D05EBC6559E6D05EB76
:1002500086555E6D05EB46551E6D05EB0655DE6C4D
:1002600005EBC6459E6C05EB86455E6C05EB464589
:100270001E6C05EB0645DE6B05EBC6359E6B05EB8C
:1002800086355E6B05EB46351E6B05EB0635DE6A83
:1002900005EBC6259E6A05EB86255E6A05EB4625BD
:1002A0001E6A05EB0625DE6905EBC6159E6905EBA2
:1002B00086155E6905EB46151E6905EB0615DE68B9
:1002C00005EBC6059E6805EB86055E6805EB4605F1
:1002D000009E7519C1F11F0620FA06F707F0010606
:1002E000744000940226009C6C4004F001045C60A1
:1002F00002AC009F22FA06FC0CEA0707A6F1010CEB
:1003000025FA0CFE8EEA070707F0010744F8047B84
:10031000761C009F22FA06FC0CEA0707A6F1010CE6
:1003200025FA0CFE8EEA070707F0010744F8047B64
:10033000761C009F22FA06FC0CEA0707A6F1010CC6
:1003400025FA0CFE8EEA0707761C07F00107202E1F
:1003500044F8047BCDD3491C2029FFF45DAF996F8D
:10036000D86F890701EBC070596F00EB4170196FAE
:1003700000EB0170D96E00EBC160996E00EB8160FB
:10038000596E00EB4160196E00EB0160D96D00EB16
:10039000C150996D00EB8150596D00EB4150196DC2
:1003A00000EB0150D96C00EBC140996C00EB81402F
:1003B000596C00EB4140196C00EB0140D96B00EB2C
:1003C000C130996B00EB8130596B00EB4130196BF8
:1003D00000EB0130D96A00EBC120996A00EB812063
:1003E000596A00EB4120196A00EB0120D96900EB42
:1003F000C110996900EB8110596900EB411019692E
:1004000000EB0110D96800EBC100996800EB810096
:10041000596800EB41000099081820B0F0BD0000B9
:10042000DFF81C0400210160DFF810144160002196
:100430008160C1600161416170470000DFF8000424
:1004400000210160DFF80814416000218160C16073
:100450000161416170470000DFF8E403DFF8F41345
:100460000160002141608160C160016141617047AC
:10047000DFF8E4231178002903BF111D0123137055
:100480000021C1F80C010846704700002DE9F04139
:100490000446DFF8AC63D4F80C5130680F4680474F
:1004A00070688047284601F061FD804601F075FDC7
:1004B000C4F808802760B0688047F0688047002053
:1004C0002071A073E07384F8BC00A4F8E80084F8FD
:1004D000EA00A4F8EC00C4F8F000C4F8080184F8BD
:1004E000F40070688047B068804770698047706822
:1004F000804730688047288800EE100AB8EE400A2E
:1005000084ED050AF7EE000A80EE800A84ED040A05
:100510002068006901F028FE00EE100AB8EE400ADB
:1005200084ED060AF6EE000A95ED0E0A95ED041A22
:1005300060EE200AC0EE810AFDEEE00A10EE900A9D
:10054000A083B0EE001AD5ED010A60EE810A95EDA8
:10055000021A60EE810A80EE200A84ED080AF5EEA8
:10056000000AA86960620A2195ED060A20EE200AB9
:1005700084ED0B0ADFEDAC0AA869A06200202063BD
:100580006063A063E06384F860006066A06684F83E
:100590006C0020676067A067E067C4F88000C4F85B
:1005A0008400C4F88800C4F88C00C4F89000C4F833
:1005B0009400C4F89800C4F89C00C4F8A000C4F8E3
:1005C000A40084F8A800686AC4F8AC00286BC4F8DA
:1005D000B00090FBF1F0C4F8B8004FF4FA70C4F822
:1005E000B800002095ED0C0AA4F8FC00B8EEC00A93
:1005F00020EE200ABDEEC00A84ED2D0AA86AC4F8D8
:100600000001002084F80401BDE8F08110B5044623
:100610000020E17B042906D108202071002084F805
:10062000BC00012010BD2179F9B92068006801F0F3
:1006300000FE012020710020A073E07384F8BC004C
:10064000A4F8E80084F8EA00A4F8EC00C4F8F0008C
:10065000C4F8080184F8F400A06A6062002084F8FD
:10066000600084F86C000120A08110BD10B5044624
:100670002068006801F0E2FD2079062818BF0728ED
:1006800003D00A281CBF0020207110BD000000000C
:1006900030B5044681B02079D4F80C51401E0728AB
:1006A00000F2BF80DFE800F00404040425BDBD446F
:1006B0002068006801F0BBFDA0B107202071072170
:1006C0002068C06801F0E0FD2068006801F075FD59
:1006D00094ED3E0ADFED550A20EE200A204601F097
:1006E000B3FB99E0204601F02BF884ED3E0A01B0FF
:1006F00030BD2068006801F09AFD002800F091806C
:100700000720207107212068C06801F0BDFD206826
:10071000006801F052FD94ED3E0ADFED440A20EE40
:10072000200A204601F090FB606AC4F8F80073E0EC
:10073000E07B042875D02068006801F078FD00286F
:100740006FD094ED3E0ADFED390A20EE200A2046F4
:1007500001F07AFB606AC4F8F800DFED350A95ED28
:10076000010A20EE200AD5ED020A20EE200AD5ED7E
:100770000E0A80EE200AD4ED090A20EE200ABDEE12
:10078000C00A10EE100A451E2068006A2AB2002135
:1007900002F007FA2068006A2AB2012102F001FA89
:1007A0002068006A2AB2022102F0FBF92068006A80
:1007B0002AB2032102F0F5F92068006A2AB2042166
:1007C00002F0EFF994F8BC00012816D12068006906
:1007D00001F07AFC00EE100AB8EEC00AF1EE080A49
:1007E00020EE200ADFED130A20EE200ABDEEC00A3B
:1007F00084ED2D0A204601F0A9FA06202071072178
:100800002068C06801F040FD2068006801F0D5FC58
:1008100040F6B830A4F8FC00DFF89C0B4188491C76
:10082000418001B030BD0000CDCCCC3E6666663F55
:1008300000008047CDCC4C3F0030024061000008F2
:10084000BC0000200AC34C3033BB55AAB71DC104FD
:100850009D0000088D010008680800202DE9F04F78
:1008600081B0064600242DED048B3079D6F80C813A
:10087000D6F80890401E082886B000F27885DFE898
:1008800010F009004C00090074006001760576053F
:10089000DF02690596ED090A304601F007F80128E4
:1008A0001DD1307901280BD102203071484601F06A
:1008B00074FBB8F81E204EF66021484601F086FB16
:1008C000307903284AD104203071484601F065FB95
:1008D000B8F82020B189484601F078FB3EE0B089A5
:1008E0004EF66021884239D1B481304600F028FFAD
:1008F0006FF0130086F8A800F6EE000A96F86C0078
:10090000401C86F86C0020EE200AC0B2032886ED59
:10091000090A23D30920307120E096ED090A3046F8
:1009200000F0C4FF484601F040FB484601F096FB4A
:10093000A0B103203071F5EE000AF4676FF01300E8
:1009400096ED090AC6F8804020EE200AC6F88440D9
:1009500086ED090A86ED0B0A86F8A8003068B18991
:10096000006801F070FC00F009BD96ED090A304600
:1009700000F09CFFB489484601F017FB304600F0B8
:10098000DFFED6F88400D6ED1F0AD6F80C71401CA5
:1009900030EE800AC6F8840086ED1F0A3068406891
:1009A000FFF742FB00EE900AF8EE600A97ED031A9B
:1009B0009FEDBB0A60EE810A01EE104AB8EE411AC3
:1009C00060EE800A21EE000A96ED201AC6ED0C0AB0
:1009D00000EE201A86ED201A484601F03FFB002861
:1009E00000F0208296ED210A96F86000D6ED1F0AED
:1009F00096ED201AB8EE400A80EE800A06EB8000E1
:100A000086ED190AD6ED210A80ED100AF8EE600A8B
:100A100096F8600006EB8000C1EE200AC0ED140AD3
:100A200096F86000401C86F86000C0B2042814D21A
:100A30006FF0130086F8A8000020F067C6F8800069
:100A4000C6F8840096ED090AD6ED0B0A30EE200AAE
:100A5000032086ED090A3071E4E1052030710020A1
:100A6000B073484601F099FA64224EF66021484678
:100A700001F0ACFA96ED111AD6ED151A96ED142A7E
:100A8000D6ED102A31EEC22A71EE622A96ED120AD4
:100A9000D6ED160A82EE222ADFED822A70EEE11AE6
:100AA00030EE411A32EE222A81EE811AD6ED171A63
:100AB00071EEE00AD6ED131A31EEC00A32EE011AD9
:100AC00080EE800A31EE000AF0EE080A80EE200A7D
:100AD00086ED0D0A98F82C0010BBD8ED050A30EE13
:100AE000600ADFEDD30AB4EE600AF1EE10FA86ED8B
:100AF0000D0A03D5DFF8980D706305E0F6EE000AE5
:100B000020EE200A86ED0D0ADFEDCA0A96ED190ADD
:100B100020EE200A002086ED1A0AB067706781E196
:100B20000A20307107213068C06801F0ADFB3068E1
:100B3000006801F042FB3068006801F07FFB002490
:100B400070E1304600F0FCFDB07B10B1022808D007
:100B500016E0DFEDB90AB4EE600AF1EE10FA0FD537
:100B60000BE0D6ED1A0AB489B4EE600AF1EE10FA81
:100B700003D5306F401C306702E0484601F074FA3C
:100B8000484601F012FA484601F068FA002800F0E1
:100B90004981B07B18B102280DD007D342E1012072
:100BA000B073484601F0F9F90A2236E10220B07329
:100BB000002030672DE10020B07396ED1C0AD6EDC1
:100BC000040A706F96ED1E1AB8EE400A20EE200A55
:100BD000D6ED0D0A00EE201A401C142886ED1E1AD0
:100BE000706740F016810620307107213068C068B8
:100BF00001F04AFB3068006801F0DFFA0020A6F837
:100C0000FC0000243068006801F018FB96ED1D0A16
:100C1000D6ED1E0AD6F80C71B8EE400A80EE800AB6
:100C200086ED0E0AA24630684068FFF7FDF900EE37
:100C3000900AF8EE600A97ED031A9FED190A60EE2C
:100C4000810A20EE800A86ED0C0A1021D8ED010AF7
:100C500096ED0D2A96ED0E1AD6ED2B1A20EE200AEF
:100C6000D8ED020A20EE200AD8ED0E0A80EE200A06
:100C7000D6ED400A21EE201A62EE200A96ED042AF3
:100C800081EE001A60EE820A61EE211A80EE800A7F
:100C900010270D46A3460F2047F6FF72012305E0FB
:100CA0000000803700000000102910D103FA00FC7A
:100CB00000EE90CAF8EEE00A60EE810AFDEEE00A6E
:100CC000CDED000ADDF800C09445B8BF41B2BFB217
:100CD000102F0ED103FA00FC00EE90CAF8EEE00AE5
:100CE00060EEA10AFDEEE00A10EE90AA9245B8BFB0
:100CF00047B2ADB2102D0ED103FA00FC00EE90CA3F
:100D0000F8EEE00A60EE800AFDEEE00A10EE90BA1E
:100D10009345B8BF45B2401E89B2C5D510290AD047
:100D20003068806901F0AFFF30680099806909B2CE
:100D300001F099FF01E009203071BFB2102F0BD0F4
:100D40003068C069394601F09EFF3068C0690FFA0B
:100D50008AF101F088FF01E009203071ADB2102D59
:100D600016D030688069294601F095FF3068C06967
:100D7000294601F090FF306880690FFA8BF101F08D
:100D800074FF3068C0690FFA8BF101F06EFF01E06B
:100D900009203071DFED290A98ED010A20EE200AC2
:100DA000D8ED020A20EE200AD8ED0E0A80EE200AC5
:100DB000D6ED090A20EE200ABDEEC00A10EE100A98
:100DC000471E3068006A3AB2002101F0EAFE30683E
:100DD000006A3AB2012101F0E4FE3068006A3AB2DA
:100DE000022101F0DEFE3068006A3AB2032101F010
:100DF000D8FE3068006A3AB2042101F0D2FE3068B1
:100E0000B8F81E20006A214601F0BFFE304600F00F
:100E10009DFF484601F0C1F864224EF66021484625
:100E200001F0D4F830680068214601F00CFAA5E220
:100E3000CDCC4C3E9ED2213F0AD7233C00008047B8
:100E40003068C068FFF7E0F8001F022805D9C01E0F
:100E500000F074820FF264508BE23068806A01F017
:100E600050FFFFF7D5F804463068806800680090AE
:100E7000FFF7DEF882462146FFF7CEF80090306893
:100E80008168BDF90020B1F910108069891AFFF757
:100E9000C7F8ADF8040030688168BDF90220B1F9E7
:100EA0001210C069891AFFF7BBF8ADF80600306868
:100EB0000199406901F0E2FF01902146FFF7BCF87B
:100EC0000546306800682946FFF7BAF807463068DB
:100ED0008068C0F804A0CDF810A031688968009837
:100EE000C860316889680198C1F816003068806868
:100EF000D0F81A00039030688068C0F81A50306843
:100F00008068048430684068FFF78EF8ADF81400FC
:100F100003A93068406AFFF797F8ADF80800306819
:100F2000406AFFF795F83068006902A9FFF78CF86E
:100F3000F07B052800F22382DFE810F006009B001A
:100F400021026B01B5019C01304600F01DFD022815
:100F500086F8F40038D13068006901F0B5F800EB8C
:100F600040014800C6F8B400062190FBF1F000B241
:100F700000EE100AB8EEC00ADFEDBD0A20EE200A2E
:100F8000B5EE400AF1EE10FA3068406A48BFB1EEA3
:100F9000400ABDEEC00A10EE101A89B202F0BFFC82
:100FA0000120F07306B00020C6F88800C6F88C0057
:100FB000C6F89000C6F89400C6F89800B8B2BDEC28
:100FC000048B01B0BDE8F08F012800F0D881032820
:100FD00023D196ED2E0ABBEEEF0ABCEEC00A86EDD9
:100FE0002E0A304600F0B2FE06203071072130682C
:100FF000C06801F049F93068006801F0DEF80020AF
:10100000A6F8FC00EC488188491C818006B0B8B283
:10101000BDEC048B01B0BDE8F08F042840F0AF8137
:1010200096ED3C0AB8EE400ADFEDD80A20EE200A21
:10103000BDEEC00A86ED2D0A304600F087FE062080
:10104000307107213068C06801F01EF9306800680F
:1010500001F0B3F840F6B830A6F8FC00D648C188D5
:10106000491CC18006B0B8B2BDEC048B01B0BDE82C
:10107000F08F3068D8ED010A8068D6F80C41B0F9DD
:101080000C009FEDC31A60EE810A98ED021A60EE23
:10109000810A98ED0E1A00EE100AC1EE200AB8EE91
:1010A000C00A96ED221A00EE201A86ED221A306848
:1010B0004068FEF7B9FF00EE900AF8EE600A94ED82
:1010C000031A9FEDB40A60EE810A20EE800A86EDD5
:1010D0000C0ADFEDB10A30688068B0F9160001EE45
:1010E000100AB8EEC11A21EE000A96ED231A00EE9E
:1010F000201A86ED231A42F21071306896ED0C1A10
:101100008068B0F9180000EE100AB8EEC00A20EEB0
:10111000010AD6F8980096ED241A00EE201A401C19
:10112000884286ED241AC6F89800C0F0288100EEA7
:10113000100A0020C6F89400C6F89800B8EE400ADD
:10114000D6ED220AC6F8880080EE808AD6ED230A02
:10115000C6F88C00C0EE808AD6ED240AC6F890004E
:1011600080EE809A3068006900F0AEFF00EE100A51
:10117000B8EEC00AF2EE040A80EE200ADFED870A1C
:1011800060EE209AD6ED0D0A40EEC88AD6ED060A2A
:1011900020EE200ADFED820A20EE200AD6ED0E0AAC
:1011A00020EE200A00EE089A28EEA80A09EE090AA5
:1011B000B5EE400AF1EE10FA04DB02F0B5FBB0EE3A
:1011C000408A01E09FED778A9FED770A28EE000ABA
:1011D000DFED760A20EE200A80EE290A86ED0F0A5E
:1011E0003068C06A03F05DFAD6ED0C0A9FED701A04
:1011F00089EE880AC0EE810A20EE200A06B086ED4C
:10120000270A0220F073B8B2BDEC048B01B0BDE830
:10121000F08F484600F0C9FE484600F01FFF002846
:1012200000F0AD803068406A00F04EFF00EE100A1A
:10123000BAEE670ABDEEC00A10EE100A00B200EE68
:10124000100AB8EEC00ADFED0A0A20EE200AB5EE59
:10125000400AF1EE10FA3068406A48BFB1EE400A29
:10126000BDEEC00A10EE101A89B202F058FB0EE073
:10127000CDCC8C3F3068006A01F081FC08B10320BE
:10128000F0733068C068FEF7BFFE062877D10420EF
:10129000F07306B0484900200870B8B2BDEC048B6A
:1012A00001B0BDE8F08F3068C06A03F0FDF9002896
:1012B00065D13068406A00F007FF80463068406AB8
:1012C00002F01BFB00EE100AB8EEC08A00EE108A96
:1012D000B8EEC00AF1EE080A20EE200A10EE100A5D
:1012E00003F0E6F90446D6F89C000D4603F0E0F959
:1012F000DFF8402BDFF8383B03F002FA22462B469A
:1013000003F0D0FA02D22C49012008709FED290A7F
:10131000B4EE408AF1EE10FA31D527480078012862
:101320002DD13068C0680022202101F00FF806B0EE
:10133000B8B2BDEC048B01B0BDE8F08F3068006836
:1013400000F03BFF347106B0B8B2BDEC048B01B0C5
:10135000BDE8F08F3068C068072100F095FF347158
:1013600006B0B8B2BDEC048B01B0BDE8F08F0FF24F
:101370005000016830680068FEF762FE074606B05C
:10138000B8B2BDEC048B01B0BDE8F08FCDCC4C3FC2
:10139000000080470000803746CD93370000704240
:1013A000DB0FC9400000000071C49C3F00007A447C
:1013B000D7B3DD3FA52BDD4CE81100200000000075
:1013C0000000000070B586B004462068A568C068BB
:1013D000FEF71AFE2179062908D0C0F0AF8108294E
:1013E00000F08280C0F09A8106B070BD0B2800F238
:1013F000A581DFE810F00C00A301A301A3015900AF
:10140000A301A301A301A301A301A3019F01B4F8B8
:10141000FC0040B1401EA4F8FC002068006800F009
:10142000FBFE06B070BD94ED050AD4ED0E0A94EDF6
:101430000D1A20EE802A81EE022AF7EE002AF5EE40
:10144000001A32EEC22A22EE212AF5EE002A72EEAE
:10145000222AB8EE003A72EE832AC1EE200A42EE4A
:10146000800AC4ED280AF7EE000A70EEC20ABDEE4B
:10147000001A70EE810A94ED050A42EE210A60EE30
:10148000800A20EE800AD4ED0E0A20EE200A84EDB8
:10149000290A03212068C06800F0F6FE2068006871
:1014A00000F08BFE06B070BD0820207106B0002051
:1014B000E07384F8BC00A4F8E80084F8EA00A4F81B
:1014C000EC00C4F8F000C4F80801012084F8F4002E
:1014D0000020C4F88800C4F88C00C4F89000C4F858
:1014E0009400C4F8980070BDE07B022840F026818B
:1014F000D4ED272A94ED0F3A62EE832A9FEDA43AA9
:1015000062EE832A9FEDA33AC2EE832ADFEDA21A90
:101510009FEDA12A9FEDA01A9FED9F0ADFED9E0A85
:101520000E209FEDD94A9FEDD93A012101FA00F230
:10153000D4ED054A94ED0E5A94ED0D6A03EE902A0F
:1015400065EE245AF8EEE33AC6EE255A65EEA35A44
:10155000F4EE435AF1EE10FA32DA94ED281A81EEE5
:10156000241A21EE231AB4EE431AF1EE10FA27DA08
:10157000B4EE441AF1EE10FA22D4D4ED081A65EE56
:10158000211A61EEA44AC2EEA41A61EEA31AF4EE87
:10159000431AF1EE10FA13DAB4F91C2002EE102A05
:1015A000B8EEC22A82EE242A22EE232AB4EE432A7F
:1015B000F1EE10FA04DA00EE100AB8EEC00A03E009
:1015C000401E40B20128B1DA5FF00E0094ED295AB6
:1015D00094ED086A01FA00F225EE065A04EE902A0C
:1015E00085EE225A94ED056AF8EEE44A85EE065A35
:1015F00025EE245AB4EE435AF1EE10FA04DAB4EEB2
:10160000445AF1EE10FA04D5401E40B20128DDDA4A
:1016100003E000EE900AF8EEE00AFDEEE52A12EE95
:10162000900AADF80000BDEEC11A11EE100AADF837
:101630000200BDEEE11A11EE100AADF80400BDEE95
:10164000C51A11EE100AADF80600BDEEC21A11EE71
:10165000100AADF80800BDEEE31A11EE100AADF85D
:101660000A00BDEEE41A11EE100AADF80C00BDEE52
:10167000C00A10EE100AADF80E00BDEEE00A10EE42
:10168000100AADF8100000A92068406A01F04EFE73
:1016900094ED271A94ED050AD4ED060A2068406AF5
:1016A000DFEDB51A61EE211A61EEA01A20EE002AD4
:1016B000C1EE821AB5EE002A61EE821AFDEEE11A41
:1016C00011EE902ADFEDAD1A21EE211A61EE200A0B
:1016D00080EE800ABDEEC00A10EE101A12B209B2F6
:1016E00002F0E8F820680069FEF792FC06462068E0
:1016F000006900F0ECFC01462068406A324602F0C6
:10170000E8F8284600F049FCFA224EF66021284607
:1017100000F05CFC0320E07306B070BD40B92068A7
:10172000C068032100F0B0FD0020207106B070BD3C
:101730000B2803D12068C06800F01FFE06B070BD02
:10174000D0F80C11006891ED010A8068DFED8C0A79
:1017500020EE200AD1ED020A20EE200AD1ED0E0A79
:10176000B0F90010B0F9020080EE800A00EE901A85
:10177000F8EEE00A01EE100A60EEC00AB8EEC11AF7
:1017800041EE400AB6EE000A20EE800A70470000E3
:101790008104B53F0080D844000000000520704758
:1017A00030B5044681B02068C06A02F096FE00257C
:1017B000012808BF84F804512068C068FEF724FCA3
:1017C0000A2804BF84F80451257120790A281BD8FF
:1017D000DFE800F006090D111111151515061900A5
:1017E00094F8040180B10125284601B030BD0225DE
:1017F000284601B030BD0325284601B030BD042580
:10180000284601B030BD0E25284601B030BD90ED10
:101810000D0A03F05EB890ED0E0A03F05AB890ED91
:101820000F0A03F056B890ED0C0A03F052B8C17BD2
:1018300004291CBF01790A291CD10021C17380F839
:10184000BC10A0F8E81080F8EA10A0F8EC10C0F87E
:10185000F010C0F8081180F8F4100A22D0F8B01087
:1018600091FBF2F1C0F8B8104FF4FA71C0F8B8105B
:1018700000210171012180F804110021DFF8B80670
:1018800041808180C180704700FEFFC601FEFF4697
:10189000CDCCCC3D10B504462068006800F08DFC2E
:1018A0000020207184F8040110BD00009FED341A5F
:1018B00001460020D1F80C21D2ED010A60EE810A28
:1018C00092ED021A60EE810A92ED0E1A0A68926891
:1018D000135EB2F90220C1EE200A01EE103AB8EE12
:1018E000C11A01EE902A21EE601AF8EEE11A01EE1B
:1018F000E01AF6EE000A61EE200AF4EE400A8A8948
:10190000F1EE10FA1EDB0AB1521E8A8130EEC00AD7
:10191000DFED1C0AB4EE600AF1EE10FA21D491F862
:10192000A820521E81F8A82052B212F1130F03DA38
:101930006FF0130281F8A82091F9A810002958BF70
:10194000012070474EF6602330EE600A9A42DFEDC8
:101950000D0ABCBF521C8A81B4EE600AF1EE10FA87
:10196000DDD591F8A820521C81F8A82052B2142A83
:10197000E2DB1422DEE70000B0EDB74900000544C9
:1019800000008047CDCC4C3E70B504462DED068B53
:10199000D4F80C012168D0ED010A8968D4F80C61F3
:1019A000B1F90C109FEDE21A60EE810A90ED021A77
:1019B00060EE810A90ED0E1A00EE101AC1EE200AB8
:1019C000B8EEC00A94ED221A00EE201A84ED221A15
:1019D000012520684068FEF727FB00EE100AB8EEEC
:1019E000400AD6ED030A20EE200ADFEDD20A20EEEF
:1019F000200A84ED0C0ADFEDD00A20688068B0F977
:101A0000160001EE100AB8EEC11A21EE000A94ED9C
:101A1000231A00EE201A84ED231A206894ED0C1A84
:101A20008068B0F9180000EE100AB8EEC00A20EE87
:101A3000010A94ED241A00EE201A84ED241A20687D
:101A4000006900F041FB00EE100AB8EEC00AD4EDC8
:101A5000060AD4F8980020EE200AF2EE040A80EE7E
:101A6000200AD4ED250A42F2107130EE200A401C03
:101A7000884284ED250AC4F89800C0F0548100EE35
:101A8000100AB8EE400AD4ED220A80EE809AD4ED16
:101A9000230A80EE80AAD4ED240AC0EE809AD4ED09
:101AA000250A80EE808AB5EE408A0020F1EE10FA19
:101AB000C4F88800C4F88C00C4F89000C4F89400FE
:101AC000C4F8980000F02F812068006900F0FCFA4B
:101AD00000EE100AB8EEC00AF1EE080A20EE200A65
:101AE000BDEEC00A10EE106A9FED940A68EE008AFF
:101AF00094ED0D0A00EE49AA94ED0E0A28EE800A34
:101B000040EE099A2AEE0A0A09EEA90AB5EE400A41
:101B1000F1EE10FA04DB01F007FFB0EE409A01E0AD
:101B20009FED879AB4F8E80004EB800080ED309ACE
:101B3000B4F8E80004EB8000C0ED358AB4F8E800A2
:101B4000401CA4F8E80080B2052804D30020A4F8C3
:101B5000E80084F8EA5094F8EA00002800F0CB800E
:101B6000D4F8B00002F0BAFEDFF8C822DFF8CC33B8
:101B700002F0C6FD02F0C8FEB04280F2BC809FEDCC
:101B8000702A04F1D401B1EE043AD1ED001A91EDBE
:101B9000011AD1ED020A91ED030AD1ED042A31EECA
:101BA000822A32EE012A32EE202A32EE002A32EE6A
:101BB000222A04F1C00082EE033A71EEC31A31EE1C
:101BC000431A70EEC30A30EE430A72EEC32A90ED58
:101BD000005ADFED5B5A9FED5A6A90ED013A41EEF3
:101BE000855A01EEA16AD0ED023A41EE035A01EEA8
:101BF000016A90ED034A40EEA35A00EEA06AD0EDD0
:101C0000044A40EE045A00EE006A9FED4D0A35EE9C
:101C1000000A30EE030A30EE230A42EEA45A02EE26
:101C2000A26A30EE040AC5EE869A30EE240A02EE6D
:101C3000690AF1EE040A80EE20AA08EEA9AA1AEEBB
:101C4000100A02F035FD4FF04C42DFF8F43202F09A
:101C500057FD02F07FFE00EE100AB4EE490AF1EEE5
:101C600010FA2BD51AEE100A02F022FD4FF01A429C
:101C7000DFF8D03202F044FD02F06CFE00EE100AF4
:101C8000B4EE409AF1EE10FA18D59FED2E0AD4ED7D
:101C9000060A80EE200AB4EE690AF1EE10FA0DD5BC
:101CA00094F8BC0038B9D4F8B4003018032190FB84
:101CB000F1F0C4F8080184F8BC501CE094F8BC00B2
:101CC000012810D19FED200A28EE000AD4ED060A63
:101CD00080EE200A0020BCEEC00A84F8BC00042577
:101CE00084ED3C0A1DE0B4F8EC00401CA4F8EC00C4
:101CF00080B2042808DA2068006AFEF7ADF90028EF
:101D000094F8BC0002D050B9032509E058B1D4F8CA
:101D10000801B04207D22068006A00F05FFF022588
:101D20000020A4F8EC00BDEC068B284670BD000036
:101D3000000080470000803746CD9337DB0FC94055
:101D40000000000017B7D13A0000704230B581B0F2
:101D500004462DED028BD4F8B80094ED2D0AB8EEB0
:101D6000C00AF1EE080A01EE100AC0EE200AB8EE31
:101D7000411A80EE010A9FED6A1A20EE018A9FED5A
:101D8000690AB4EE408AF1EE10FA0DDB00EB801028
:101D900000EE100A84ED2D0AB8EEC00AF1EE080A32
:101DA000C0EE200A9FED608ABDEEE00A10EE105AE8
:101DB0002DB200EE105AB8EEC00ADFED5C0A20EE3C
:101DC000200AB5EE400AF1EE10FA2068406A48BFDA
:101DD000B1EE400ABDEEC00A10EE101A89B201F051
:101DE0009EFD2068006A2A46012100F0D4FE20688A
:101DF000006A2A46022100F0CEFE2068006A2A46C8
:101E0000032100F0C8FE2068006A2A46042100F081
:101E1000C2FE2068006ABDEEC80ABDEC028B10EE5F
:101E2000102A01B0BDE8304092B2012100F0ADBEF1
:101E30009999E93F9A99999900EE101AB8EE400ADB
:101E400080ED060A7047000030B581B00368D0F815
:101E50000C119A6ADC6A80ED090AF5EE000A60EE60
:101E6000200AC0ED0B0A80ED0A0ADFED310A20EEF0
:101E7000200AD1ED010A20EE200AD1ED020A20EE5F
:101E8000200AD1ED0E0A80EE200ABDEEC00A10EE47
:101E9000105A1AB1A9B2104600F0DDFF34B1A9B250
:101EA000204601B0BDE8304002F0ACBB01B030BD0F
:101EB00090ED0A0A704780ED2B0A704790ED2B0ACF
:101EC000704700000268D26A11B9D0F80C11096B92
:101ED000C0F8B0100A23D0F8B01090ED2C0A91FB96
:101EE000F3F1C0F8B810B8EEC00A4FF4FA71C0F8B8
:101EF000B810DFED100A20EE200ABDEEC00AD0F8BF
:101F0000B01080ED2D0A104602F0C8BBD0F8B0002A
:101F10007047D0F8B4007047D0F8B80070470000A0
:101F200000007A4401FF7F4700E87D47CDCC8C3F1D
:101F300000008047CDCCCC3EE81100209999B93FF4
:101F4000CCCCEC3F9999F13F90ED0A0A704780EDB7
:101F5000400A704790ED400A7047D0F80C01808E1F
:101F60007047D0F80C0190F836007047374A137864
:101F7000042B07D2C3EBC30102EB81015B1C091DDB
:101F8000137000E00021486100200860486088600C
:101F9000C860012008610846704700210160416067
:101FA0008160C16001210161704782680168022A75
:101FB00003D3C3685918521E05E0012A04D14168B1
:101FC0000269514300228260016043E02DE9F84F2D
:101FD00004460D46206821696769160090FBF1F8F8
:101FE00008D1284600F044F82061684320600020B2
:101FF000A06027E0A5EB0809484600F039F88246C2
:10200000404600F035F88346284600F031F8DA45BE
:1020100001D2824501E0DA46834588BF8246C4F892
:1020200010A00AFB08F0206065603888084A7043F9
:10203000A0FB0221480A401C2169A06001FB09F1B4
:1020400091FBF0F0E0600120BDE8F28F340F00203A
:10205000986E1283006991FBF0F070478068002150
:1020600000B901210846704700218160C1607047B6
:10207000002848BF404201210122C1F11F0302FA9A
:1020800003F3834203D3491CC9B22029F5D3481E68
:1020900002FA00F070470000074A1378032B07D2BA
:1020A0002C2111FB03F111445B1C091D137000E08E
:1020B0000021486208467047B80D0020011D0A6AD9
:1020C0001278CA7709680847B0F91C007047B0F960
:1020D0001E0070474269104700F1080100228A760D
:1020E00009680847F8B500F110040F4661698E7958
:1020F000226839469047012508B9304625E000217D
:1021000063697A5E5F88A07C002A48BF52421FFA4A
:1021100082FC67459F8838BF012192B2BA42B4F968
:1021200010201B8938BF0121002A48BF524292B2B9
:10213000934200D319B1B04204DA401C02E0B0422D
:10214000B8BF0020C0B2B04200D10025A07428461C
:10215000F2BDB0F91C10406AB0F90200C1EBC13108
:1021600091FBF0F000B2704790F82300704780F8C0
:1021700023107047064A1178002903BF111D01235F
:10218000137000210867002048640846704700006B
:10219000400E002038B500F154044DF6B452E56904
:1021A00029885143890B2180002121734168884788
:1021B00000202083A888608331BD002180F8601052
:1021C000C1680847002180F860100169084770B5B0
:1021D0000446002508000CD104F160062046357045
:1021E000E16888473069408870803069408888B9E4
:1021F0000AE001290ED104F160067088010008D0C0
:10220000401E708080B228B904F10C012046896814
:1022100088470125284670BD012180F8601081693A
:102220000847826B1047826B1047C2691047016CE8
:102230000847816C0A0018BF08477047C16C0A0044
:1022400018BF0847704718B402460120136D1C00E0
:1022500002D0104614BC184712BC704706490A78D1
:10226000022A06D202EB42000844521C001D0A70EA
:102270007047002070470000C41100200021017049
:10228000417081707047000010B40A460378002145
:10229000122B0DD8DFE803F021264732424547498B
:1022A0004B4E0C0C0A2C2E303C3E4000140045D006
:1022B000032A1CBF012A072A45D0427842F0800237
:1022C00042700A2B827842F080028270427842701B
:1022D00036D1002A37D10B2234E0032A2ED0012A2E
:1022E0002AD12BE0072A18BF0D2A27D00E2A1FE07B
:1022F0000E2A14E00F2A12E0022A10E0072A18BF63
:10230000102A1BD0042A18BF112A17D0012A0FE067
:10231000112A04E0122A02E0042A00E0052A02D170
:102320000CE0062A0AD0072A02E0082A00E0092A5F
:10233000BED103E0140001D00C2AB9D1012101E083
:102340000AB10A22027010BC0846704710B44478E3
:1023500003780C4344708478214381704178914321
:102360000A2B417002D129B90B2101E011B10A21D8
:1023700001700B4610BC18467047027800210B2AEA
:1023800004D10921017000218170012108467047A4
:102390008178407841EA004070470000DFF800F0A3
:1023A000FD0D001030B5DFF8C84481B00120A060F9
:1023B000DFF8C0042060256800F0A4F885421CBF47
:1023C00020688047DFF8B0040021016041600FF20F
:1023D0004D0181600021C1600161416101B030BDEA
:1023E00030B5DFF88C4481B00120A060DFF88404B0
:1023F0002060256800F086F885421CBF2068804771
:10240000DFF874040021016041600FF24D0181602A
:102410000021C1600161416101B030BD00B5DFF84C
:10242000500481B001218160DFF85024DFF850149E
:102430000160016891421CBF00688047DFF83804E2
:1024400000210160416081600FF22531C1600021EF
:102450000161416101B000BD00B5DFF8140481B035
:1024600001218160DFF81424DFF814140160016891
:1024700091421CBF00688047DFF8FC030021016027
:1024800041608160C16001610FF20901416101B0E9
:1024900000BD000000B5DFF8D80381B001218160E4
:1024A000DFF8D823DFF8D8130160016891421CBF20
:1024B00000688047DFF8C003002101600FF2C921E6
:1024C000416000218160C1600161416101B000BDD6
:1024D00000B5E74881B001218160E84AE849016020
:1024E000016891421CBF00688047E3480FF26921F0
:1024F0000160002141608160C1600161416101B002
:1025000000BD0000F0B5A0B0002300A94FF0FF32DD
:1025100022FA03F404F0010441F8044B5B1C22FA94
:1025200003F404F0010441F8044B5B1C22FA03F4A9
:1025300004F0010441F8044B5B1C22FA03F45B1C19
:1025400004F00104202B41F8044BE1D30021CD4AD3
:1025500000AB9D6FDC6F5E6FAD0705EBC47505EBDF
:1025600046751E6F05EB0675DE6E05EBC6659E6E45
:1025700005EB86655E6E05EB46651E6E05EB066532
:10258000DE6D05EBC6559E6D05EB86555E6D05EB64
:1025900046551E6D05EB0655DE6C05EBC6459E6C7B
:1025A00005EB86455E6C05EB46451E6C05EB064566
:1025B000DE6B05EBC6359E6B05EB86355E6B05EB7A
:1025C00046351E6B05EB0635DE6A05EBC6259E6AB1
:1025D00005EB86255E6A05EB46251E6A05EB06259A
:1025E000DE6905EBC6159E6905EB86155E6905EB90
:1025F00046151E6905EB0615DE6805EBC6059E68E7
:1026000005EB86055E6805EB4605009E7519C1F170
:102610001F0620FA06F707F0010674400094022610
:10262000009C6C4004F001045C6002AC009F22FA44
:1026300006FC0CEA0707A6F1010C25FA0CFE8EEA4F
:10264000070707F0010744F8047B761C009F22FA75
:1026500006FC0CEA0707A6F1010C25FA0CFE8EEA2F
:10266000070707F0010744F8047B761C009F22FA55
:1026700006FC0CEA0707A6F1010C25FA0CFE8EEA0F
:102680000707761C07F00107202E44F8047BCDD302
:10269000491C2029FFF45DAF996FD86F890701EBC2
:1026A000C070596F00EB4170196F00EB0170D96E6B
:1026B00000EBC160996E00EB8160596E00EB4160E8
:1026C000196E00EB0160D96D00EBC150996D00EB04
:1026D0008150596D00EB4150196D00EB0150D96CE0
:1026E00000EBC140996C00EB8140596C00EB41401C
:1026F000196C00EB0140D96B00EBC130996B00EB1A
:102700008130596B00EB4130196B00EB0130D96A15
:1027100000EBC120996A00EB8120596A00EB41204F
:10272000196A00EB0120D96900EBC110996900EB2F
:102730008110596900EB4110196900EB0110D9684B
:1027400000EBC100996800EB8100596800EB410083
:102750000099081820B0F0BD4748002101604549A4
:10276000416000218160C1600161416170470000EA
:102770004148002101604449416000218160C160FD
:1027800001614161704700003B4840490160002100
:1027900041608160C1600161416170473C4A1178CC
:1027A000002903BF111D012313700021C1F89000FF
:1027B000084670472DE9F04F83462F4CDBF89050C8
:1027C0006E6881B02068884691469A468047606866
:1027D0008047CBF80080CBF804900027A0688047A2
:1027E000E0688047CBF878A00A98CBF88000606852
:1027F0008047A06880478BF884708BF8857060698B
:10280000804760688047206880470BF116000EE023
:10281000318820F8021C7F1C71880180FFB2B188CA
:10282000418000F10A01C0F806100C30B6680EB104
:10283000082FEDD307EB47010BEB81010020086166
:102840006421688AABF86800288AABF86C00002025
:10285000CBF8700028888BF8747048434FF47A7175
:10286000B0FBF1F08BF88D0001B0BDE8F08F0000F7
:1028700000300240A5230008A40000200AC34C3009
:1028800033BB55AAB71DC104E1230008D1240008B9
:10289000200D00202DE9F04381B004460020D4F83B
:1028A0000490D4F8008084F88500C4F88800A074EF
:1028B00084F87C0084F884000D46D4F8906025826A
:1028C0004846FFF709FC0021404600F02BFA7088CB
:1028D00010FB05F109B24846FFF7FCFB002200217E
:1028E000404604F1140700F021FAB8883A8810FB3A
:1028F00005F109B2404600F019FA78883A8810FBD1
:1029000005F109B2484602F0EBF8388831884843AF
:102910004FF47A71B0FBF1F0401C2081B868E060A0
:1029200001B0002084F88C00BDE8F0832DE9F04F61
:10293000044681B0E668D4F890503088ADF80000C5
:1029400001272089002800F0C280401E2081287DB8
:10295000002800F0B980A07C002840F0B58094F8F1
:102960008500002840F0AD8094F88C0094F88D101C
:10297000401C84F88C00C0B2814207D2A06FFFF7E0
:102980000DFD002084F87C0084F88C00A06F00F01E
:10299000B8FF70B194F87C007F280ED2401C84F8F8
:1029A0007C00A06FFFF790FBD4F8881001FA80F04C
:1029B00001E084F87C00C4F8880094F87C0094F866
:1029C0008D10B0EB510F40F07F80A06FFFF77CFBC4
:1029D0008046B8F1000F46BFC0F100090FFA89F92F
:1029E000C146B4F91000012808DBB8F1010F08DA7C
:1029F000002084F87C00C4F8880065E0B8F1000F7E
:102A0000F6D568891FFA89F1884205D2A06F00F0D7
:102A10007CFF84F8857057E0A889884254D26068AA
:102A200002F0C7F8A06F4FF0000A00F073FFD34622
:102A300009E0B06868B1B6F904B0E0600646A07C71
:102A4000401C8A46A074B6F9020048451FDAB168F6
:102A500011B90020208137E08246A07CB6F904B08D
:102A6000E160401C0E46A074B6F9020048450EDA3B
:102A7000B1680029EDD08246B6F904B0A07CE160CF
:102A80000E46401CA074B6F902104945D1DBB6F9D8
:102A90000400B6F90210A0EB0B0000FB08F0A1EB5C
:102AA0000A0190FBF1F00BEB00012068002209B253
:102AB00000F03CF904F16800E06027810620A07472
:102AC00002E0A06F00F021FF2089002853D1E068C8
:102AD0000028287D40D0C0B1A07C68B9D4F880001F
:102AE000FFF76BFBD4F8800084F88470FFF794FB49
:102AF000002084F87C0008E0012806D1D4F880008A
:102B0000FFF760FB002084F88400B088218ABDF8BC
:102B1000008010FB01F12068424609B200F006F97E
:102B20007088218ABDF8002010FB01F1606809B2AD
:102B300001F0D6FF288800FB08F04FF47A71B0FB53
:102B4000F1F0401C208101B0B068E060A07C401C26
:102B5000A0743846BDE8F08F00281CBFA07C042874
:102B600008D0072807D10020A074208101B0384682
:102B7000BDE8F08F0027384601B0BDE8F08FC0688F
:102B8000002100B901210846704701EB410300EB29
:102B900083008282704701EB410300EB8300C28215
:102BA000704701EB410300EB83000283704701EBA8
:102BB000410200EB8200808A704701EB410200EB8A
:102BC0008200B0F91600704701EB410200EB820071
:102BD000B0F91800704790F87400704710B5446859
:102BE0000021C16001812046FFF76EFA01462046B0
:102BF000BDE81040002201F073BF0000084A1378BE
:102C0000082B07D203EBC30102EB81015B1C091DFA
:102C1000137000E00021C861002008620846704778
:102C200028060020C16909880180C169498841805E
:102C300000214160C16989688160C169C968C1605A
:102C4000C169098A0182C169498A4182C169898849
:102C50008182C169C988C182C169898A0183C169C8
:102C6000C98A41837047018070474180704700E006
:102C700002E0B0F900007047B0F90200704741600F
:102C80007047808A70470183012202FA01F1818234
:102C90007047C08A7047418301228A40C2EBC2312B
:102CA0008160C282A2EBC231C1607047C1607047CF
:102CB000816070474182704701827047424A1178B3
:102CC000002903BF111D012313700021086208466B
:102CD0007047036A01614261997B0170B3F910107A
:102CE00009044160B3F91210090481600021418098
:102CF000C1608161598981839989C183704741612C
:102D00007047406970470178012903D100690021AB
:102D1000FFF7B5BF70474068FFE7C11300EB1140F4
:102D20000014704701700021C16070472DE9F04127
:102D300005462E6A28780F4690460124C0B9A86837
:102D4000B5F91E20C11300EB1140A98B0014B94244
:102D5000B8BF002497421EDB210030D0B8F1000F2D
:102D60001ED12978380401290CBF6860A86014E0DE
:102D70006869FFF7A9F9010469607188B942A4BFC5
:102D8000B6F90820974206DBB1888F42BCBFB6F97E
:102D90000610B942E2DA002411E00020E8600DE0FC
:102DA0006F80381A3188094B01FB08F1A1FB03320F
:102DB000510A491C0004E96090FBF1F0A86120462B
:102DC000BDE8F08100000000A0100020986E128382
:102DD00070B5044620780028E0680CBFA5686568D7
:102DE000022803D3A1694D19401E05E0012804D132
:102DF000B4F9020005040020E060E81305EB104080
:102E00000614207801280CD16069FFF75DF9311AAA
:102E1000206909B2FDF704F9064630046560A06038
:102E200000E0A560304670BD006AB0F91000704740
:102E3000006A40887047006AB0F90800704781B0A6
:102E4000006AB0F91210ADF80010808AADF80200E7
:102E5000009801B0704781834942C18370470000E8
:102E6000054A1178002903BF111D012313700021A9
:102E70000860084670470000E011002013B400917C
:102E80000168BDF90420BDF906000C8812FB02F3AD
:102E900010FB003364439C4215D291F8B0401B0EE6
:102EA0001B1BDBB201EB430149884A4348439313A0
:102EB000811302EB534200EB5140D213C013ADF823
:102EC0000020ADF80200009816BC704730B5DFF85E
:102ED000244681B00120A060DFF81C062060256830
:102EE00000F0A8F885421CBF20688047DFF80C0678
:102EF0000021016041600FF24D0181600021C1603D
:102F00000161416101B030BD30B5DFF8E84581B005
:102F10000120A060DFF8E0052060256800F08AF855
:102F200085421CBF20688047DFF8D0050021016082
:102F300041600FF24D0181600021C160016141617A
:102F400001B030BD00B5DFF8AC0581B00121816072
:102F5000DFF8AC25DFF8AC150160016891421CBFB9
:102F600000688047DFF894050021016041608160BE
:102F70000FF23131C16000210161416101B000BD3A
:102F800000B5DFF8700581B001218160DFF87025A0
:102F9000DFF870150160016891421CBF006880472E
:102FA000DFF858050021016041608160C160016166
:102FB0000FF20901416101B000BD000000B5DFF86A
:102FC000340581B001218160DFF83425DFF8341544
:102FD0000160016891421CBF00688047DFF81C0552
:102FE000002101600FF2D521416000218160C160A4
:102FF0000161416101B000BD00B5DFF8F80481B0A6
:1030000001218160DFF8F824DFF8F814016001681D
:1030100091421CBF00688047DFF8E0040FF26D2189
:103020000160002141608160C1600161416101B0C6
:1030300000BD0000F0B5A0B0002300A94FF0FF32A2
:1030400022FA03F404F0010441F8044B5B1C22FA59
:1030500003F404F0010441F8044B5B1C22FA03F46E
:1030600004F0010441F8044B5B1C22FA03F45B1CDE
:1030700004F00104202B41F8044BE1D30021DFF8D8
:10308000882400AB9D6FDC6F5E6FAD0705EBC475E8
:1030900005EB46751E6F05EB0675DE6E05EBC66526
:1030A0009E6E05EB86655E6E05EB46651E6E05EB56
:1030B0000665DE6D05EBC6559E6D05EB86555E6DAE
:1030C00005EB46551E6D05EB0655DE6C05EBC6455A
:1030D0009E6C05EB86455E6C05EB46451E6C05EB6C
:1030E0000645DE6B05EBC6359E6B05EB86355E6BE4
:1030F00005EB46351E6B05EB0635DE6A05EBC6258E
:103100009E6A05EB86255E6A05EB46251E6A05EB81
:103110000625DE6905EBC6159E6905EB86155E6919
:1031200005EB46151E6905EB0615DE6805EBC605C1
:103130009E6805EB86055E6805EB4605009E7519E1
:10314000C1F11F0620FA06F707F00106744000944B
:103150000226009C6C4004F001045C6002AC009FFD
:1031600022FA06FC0CEA0707A6F1010C25FA0CFE70
:103170008EEA070707F0010744F8047B761C009FDE
:1031800022FA06FC0CEA0707A6F1010C25FA0CFE50
:103190008EEA070707F0010744F8047B761C009FBE
:1031A00022FA06FC0CEA0707A6F1010C25FA0CFE30
:1031B0008EEA0707761C07F00107202E44F8047BEF
:1031C000CDD3491C2029FFF45DAF996FD86F8907D3
:1031D00001EBC070596F00EB4170196F00EB01708B
:1031E000D96E00EBC160996E00EB8160596E00EB07
:1031F0004160196E00EB0160D96D00EBC150996D13
:1032000000EB8150596D00EB4150196D00EB0150FE
:10321000D96C00EBC140996C00EB8140596C00EB1C
:103220004140196C00EB0140D96B00EBC130996B48
:1032300000EB8130596B00EB4130196B00EB013032
:10324000D96A00EBC120996A00EB8120596A00EB32
:103250004120196A00EB0120D96900EBC11099697E
:1032600000EB8110596900EB4110196900EB011066
:10327000D96800EBC100996800EB8100596800EB48
:1032800041000099081820B0F0BD00009B480021C3
:1032900001609949416000218160C1600161416123
:1032A0007047000095480021016098494160002165
:1032B0008160C16001614161704700008F4894499D
:1032C0000160002141608160C1600161416170471E
:1032D00030B581B00D46FEF7DFFE04468D4801781B
:1032E000002903BF011D0122027000210FF23520C9
:1032F000C1F8D050A16220600FF2E50060600FF2CB
:103300003940A0608448E0600FF21D2020610FF278
:10331000C1506061A06AD0F8D0001030FFF76EFC99
:10332000A16A4861204601B030BD0000806A0A8869
:10333000028000234A8842808A888280CA88C280AC
:103340000A8902814A8982818A89C281CA89A0F850
:10335000C6200A8A4382A0F8C8200122B1F90CC015
:10336000DFF8B83193FBFCF31BB25BB3B0F812C0CB
:1033700003EBD373DB030CF1010C1B145200A0F818
:1033800012C0FBB103EBD373DB030CF1010C1B1474
:103390005200A0F812C0ABB103EBD373DB031B14D4
:1033A00052000CF1010C002BA0F812C00AD003EB64
:1033B000D373DB031B1452000CF1010C002BA0F89B
:1033C00012C0D3D10282B1F90C10B0F9102011FB58
:1033D00002F142F6BE0291FBF2F14181704700001A
:1033E0002DE9F043804683B0D8F828600FF24930C9
:1033F000D6F8D050414F01904FF001094848009055
:10340000386880472888308068887080A888B080B5
:1034100078688047E888F080288930816889B081A1
:10342000A889F081E88EA6F8C600288FA6F8C80003
:10343000B868804795F8300086F8AE00012086F81D
:10344000BC00F86880470020708278688047B5F932
:103450000C10324890FBF1F4B868804724B234B3C2
:1034600004EBD470C403708A401C24144FEA490949
:103470007082E4B104EBD471CC03401C24144FEAF5
:10348000490970829CB104EBD471CC032414401C14
:10349000002C4FEA4909708209D004EBD471CC03A7
:1034A0002414401C002C4FEA49097082D8D1786955
:1034B0008047A6F81090B5F90C00B6F9101010FB73
:1034C00001F042F6BE0190FBF1F070814046019997
:1034D0008847786880477069009988470020A8F875
:1034E000200038688047E88DA6F8CC0003B0BDE81E
:1034F000F083000000300240CD2E0008D4000020F0
:103500000AC34C3033BB55AAB71DC104092F0008AC
:10351000F92F0008580A00205D0B00105EEA0F002A
:10352000252C0008704700002DE9F24701460024D1
:103530008B6AD3F8D00090F828502046012D4FF028
:10354000000EA046A146A4460246064635DB15F00D
:10355000030A0AD0F6B203EB4607761CB7F92C70C3
:10356000BAF1010A0EFA87FEF4D1AF0825D0F6B2FF
:1035700003EB460A761CBAF92CA00EFA8AFA5FFA17
:1035800086FE03EB4E060EF1010EB6F92C600AFA28
:1035900086F65FFA8EFE03EB4E0ABAF92CA006FA05
:1035A0008AFA0EF10106F6B203EB460E761CBEF95E
:1035B0002CE07F1E0AFA8EFED9D10026012D9EFB3B
:1035C000F5FE3BDB15F0030A0CD0F6B203EB460721
:1035D000761CB7F92C70A7EB0E07BAF1010A07FBAE
:1035E0000744F2D1AF0829D0F6B203EB460A761CA5
:1035F000BAF92CA0AAEB0E0A0AFB0A44F6B203EBB6
:10360000460A761CBAF92CA0AAEB0E0A0AFB0A4459
:10361000F6B203EB460A761CBAF92CA0AAEB0E0A06
:103620000AFB0A44F6B203EB460A761CBAF92CA050
:10363000AAEB0E0A7F1E0AFB0A44D5D10EFB0EF63A
:1036400094FBF5F4B51106EB5565D3F8D060768D93
:10365000ED117543AC424C6A648904FB0EF4B8BFAB
:103660004FF0010C04EB84056C00E51304EB1544EA
:1036700091F82350241494FBF5F4009D2C808C8346
:1036800083F8ADC093F8BC50012D33D18D6AD5F8C5
:10369000D050AE8E002C48BF6442B44223DAB3F956
:1036A0002880B3F92A6018FB08F816FB06884E6AD2
:1036B000B6F90260C4EBC43494FBF6F495F83360B9
:1036C00095F832506643771106EB9766B61106FB04
:1036D00004F94FEA691409EB9464A41105FB1494EE
:1036E0004445B8BF012283F8B120C3F8B480C3F8C1
:1036F000B89000E0012293F8B040CCB193F8AD400F
:10370000002C18BF002A11D193F8AF20521C83F867
:10371000AF20D2B2896AD1F8D01091F831108A4224
:1037200006D383F8AF0001B0BDE8F08783F8AF009F
:10373000012001B0BDE8F087002130B5846AA161A5
:10374000E161216261620183C18384F8AE1084F873
:10375000AF1084F8B01084F8B110C4F8B410C4F8F5
:10376000B810C4F8C01084F8CA1084F8CB1081B027
:10377000856AD5F8D00090F82800012804DB4100C4
:1037800005F12C0001F01AFA002085F8AC00A5F82C
:10379000C40001B06069BDE830400021FFF76FBA96
:1037A000F0B40A46846A94F8CB50D4F8D0300021A3
:1037B000012D94F8CA5008BFB0F91C20012D37D054
:1037C000B0F91C5012FB05F7012F3CDB002D44BF64
:1037D0006D422DB2002A48BF524293F82C6012B2BB
:1037E00016FB02F6F71006EB177693F82D7017FB11
:1037F00002F2D71002EB177294F8AD703603120381
:10380000012F1ED1B4F8CC701FFA85FC674518D281
:10381000B5EB224FA4BF3614AE4212DB94F8AE20B3
:10382000521C84F8AE20D2B293F830309A420AD3B8
:10383000012184F8B010002280F822200846F0BC54
:10384000704784F8AE10F0BC08467047806AB0F943
:10385000281081B0ADF80010408DADF8020000983E
:1038600001B07047806AB0F8C610826981B042FA30
:1038700001F3ADF80030C06940FA01F2ADF8022062
:10388000009801B07047806A43880B80C088108020
:103890007047806A4180C280704770B5866A7069DF
:1038A0000C461546FFF7E3F920807069FFF7E0F951
:1038B000288070BD30B5856A686981B01446FFF70D
:1038C000D2F96869214601B0BDE83040FFF7CDB9B3
:1038D000704770B504460D46A06A40691646FFF76A
:1038E000D8F900FB05F1A06A4069FFF7C8F9268303
:1038F00070BD806AD0F8B8007047806AD0F8B40014
:103900007047806A90F8AD007047806A012180F8A6
:10391000CA107047806A012180F8CB107047806A16
:10392000A0F8CC1070470000B5EEC00AF1EE10FA16
:1039300002D4B1EEC00A70476FF0004C00EE10CA1E
:1039400001F040B930B5DFF82C4D81B00120A06006
:10395000DFF8240D2060256800F0A8F885421CBF20
:1039600020688047DFF8140D0021016041600FF2EC
:103970004D0181600021C1600161416101B030BD34
:1039800030B5DFF8F04C81B00120A060DFF8E80C22
:103990002060256800F08AF885421CBF20688047B7
:1039A000DFF8D80C0021016041600FF24D01816009
:1039B0000021C1600161416101B030BD00B5DFF897
:1039C000B40C81B001218160DFF8B42CDFF8B41CA5
:1039D0000160016891421CBF00688047DFF89C0CC1
:1039E00000210160416081600FF23531C16000212A
:1039F0000161416101B000BD00B5DFF8780C81B014
:103A000001218160DFF8782CDFF8781C0160016803
:103A100091421CBF00688047DFF8600C0021016004
:103A200041608160C16001610FF20901416101B033
:103A300000BD000000B5DFF83C0C81B001218160C1
:103A4000DFF83C2CDFF83C1C0160016891421CBF90
:103A500000688047DFF8240C002101600FF2DD21AF
:103A6000416000218160C1600161416101B000BD20
:103A700000B5DFF8000C81B001218160DFF8002C77
:103A8000DFF8001C0160016891421CBF006880479C
:103A9000DFF8E80B0FF26D210160002141608160C9
:103AA000C1600161416101B000BD0000F0B5A0B08E
:103AB000002300A94FF0FF3222FA03F404F00104BE
:103AC00041F8044B5B1C22FA03F404F0010441F8B2
:103AD000044B5B1C22FA03F404F0010441F8044B8C
:103AE0005B1C22FA03F45B1C04F00104202B41F858
:103AF000044BE1D30021DFF8942B00AB9D6FDC6F0A
:103B00005E6FAD0705EBC47505EB46751E6F05EBE3
:103B10000675DE6E05EBC6659E6E05EB86655E6E10
:103B200005EB46651E6E05EB0665DE6D05EBC655BD
:103B30009E6D05EB86555E6D05EB46551E6D05EBDE
:103B40000655DE6C05EBC6459E6C05EB86455E6C46
:103B500005EB46451E6C05EB0645DE6B05EBC635F1
:103B60009E6B05EB86355E6B05EB46351E6B05EBF4
:103B70000635DE6A05EBC6259E6A05EB86255E6A7C
:103B800005EB46251E6A05EB0625DE6905EBC61525
:103B90009E6905EB86155E6905EB46151E6905EB0A
:103BA0000615DE6805EBC6059E6805EB86055E68B2
:103BB00005EB4605009E7519C1F11F0620FA06F7B0
:103BC00007F00106744000940226009C6C4004F04B
:103BD00001045C6002AC009F22FA06FC0CEA0707B5
:103BE000A6F1010C25FA0CFE8EEA070707F0010783
:103BF00044F8047B761C009F22FA06FC0CEA0707B7
:103C0000A6F1010C25FA0CFE8EEA070707F0010762
:103C100044F8047B761C009F22FA06FC0CEA070796
:103C2000A6F1010C25FA0CFE8EEA0707761C07F0B8
:103C30000107202E44F8047BCDD3491C2029FFF432
:103C40005DAF996FD86F890701EBC070596F00EBBA
:103C50004170196F00EB0170D96E00EBC160996E75
:103C600000EB8160596E00EB4160196E00EB016062
:103C7000D96D00EBC150996D00EB8150596D00EB8F
:103C80004150196D00EB0150D96C00EBC140996CAB
:103C900000EB8140596C00EB4140196C00EB014096
:103CA000D96B00EBC130996B00EB8130596B00EBA5
:103CB0004130196B00EB0130D96A00EBC120996AE1
:103CC00000EB8120596A00EB4120196A00EB0120CA
:103CD000D96900EBC110996900EB8110596900EBBB
:103CE0004110196900EB0110D96800EBC100996817
:103CF00000EB8100596800EB41000099081820B0E2
:103D0000F0BD0000DFF8740900210160DFF86819D8
:103D1000416000218160C160016141617047000024
:103D2000DFF8580900210160DFF8641941600021C3
:103D30008160C1600161416170470000DFF83C09AA
:103D4000DFF850190160002141608160C1600161AC
:103D500041617047DFF840291178002903BF111D28
:103D6000012313700021C1F89C0008467047F0B58C
:103D7000044681B0D4F89C600D463046FEF7F6F854
:103D80000746FEF70AF92761DFF8F07838688047C0
:103D9000786880470020A4F85800A4F85A002062F0
:103DA0006062A062E0622065B06AC4F88000B86812
:103DB0008047F868804770682063002084F83400EA
:103DC000A063E063A4F84000A4F84C00A4F84E00FF
:103DD00078688047B8688047308896ED020A00EE20
:103DE000900AF8EE600A60EE800AFDEEE00A10EE3E
:103DF000900AA4F85C00D6ED040A80EE800ABDEEBD
:103E0000C00A10EE100AA4F85E00D6ED070A30884A
:103E100000EE100AB8EE400A20EE200ABDEEC00AFD
:103E200010EE100AA4F86000D6ED080A308800EE03
:103E3000100AB8EE400A20EE200ABDEEC00A10EECD
:103E4000100AA4F874007869804778688047386859
:103E500080472868206001B068686060A868A0603A
:103E6000E868E060002084F862006066A06684F87C
:103E70006C002067307B84F87600F089A4F8780025
:103E8000F06AC4F88400306BC4F88800706BC4F822
:103E90008C000020C4F89000C4F89400F0BD90F8A5
:103EA000621071B980F834108163C163A0F84010CA
:103EB000A0F84C10A0F84E10C0F89010C0F8941064
:103EC00070470A2180F834107047002180F83410C0
:103ED000704700002DE9F041044694F83400D4F80E
:103EE0009C602569092800F2C882DFE810F00A000A
:103EF0004200C602C602C6029500C0002D0159014B
:103F0000F0016168002081F824000021E068FEF7DC
:103F100009FF0020A063E063A4F84000A4F8480073
:103F2000A4F84C00A4F84E000120A4F84A00002098
:103F300084F86C002068FEF7C7F800EB400100220F
:103F400049002846FEF742F8D4F880104FF47A7200
:103F50002846FEF73BF8012084F834006068B0F989
:103F6000100000EE100AB8EEC00A84ED240ABDE885
:103F7000F0812846FEF719F800EE100AB8EEC00AE4
:103F800084ED1C0A204600F0B0FA07462846FEF7EA
:103F900065F8002800F07182B4F84E00401C012F33
:103FA000A4F84E0005D0B4F8741080B2814280F0BD
:103FB00064822068FEF788F800EE100AB8EEC00AA6
:103FC000F1EE080A20EE200A84ED140A41F288324C
:103FD000D6ED050A20EE200ABDEEC00A10EE100A4A
:103FE000A4F8580094ED140AD6ED060A20EE200A33
:103FF000BDEEC00A10EE100AA4F85A000020E063DB
:10400000A4F840006064A4F84E002846B4F95A10A1
:10401000FDF7DCFF05202EE22846FDF7C6FF00EE87
:10402000100AB8EEC00A84ED1C0A204600F05DFAC2
:1040300006462846FEF712F8002800F01E82B4F863
:104040004E00401C012EA4F84E0005D0B4F87410A8
:1040500080B2814280F011820020E063A4F8400029
:104060006064A4F84800A4F84E00062003E294ED32
:104070001C0A204600F039FA2068FEF725F8E16BAB
:1040800001FA80F06168E063B1F90C10A06B401890
:10409000A063B4F84000B4F85C10401CA4F84000E1
:1040A000606C401C6064B4F84000814280F0E5819F
:1040B000E16BB4F8602091FBF0F0B4F84810A4F87C
:1040C0004800091AA4F84A1009B2002948BF494219
:1040D0000020E063A4F84000606C8242A4BF09B2F3
:1040E000052980F2CA81A16B91FBF0F0A082DFED7F
:1040F000E40AB4F9480000EE100AB8EEC00A94F8D9
:10410000760020EE200A00EE900AF8EE600A20EE1B
:10411000200A84ED060A2068FDF7D6FF00EE100A9B
:104120000020B8EEC00AF1EE080AA4F84E0020EE16
:10413000200AB4F9581084ED1C0A41F2883228464E
:10414000FDF744FF072096E12846FDF72EFF00EE1D
:10415000100AB8EEC00A84ED1C0A204600F0C5F92A
:1041600006462846FDF77AFF002800F08681B4F85D
:104170004E00401C012EA4F84E0005D0B4F8741077
:1041800080B2814280F079810020A063E063A4F8CE
:1041900040006064A4F84800A4F84E0008206AE1DA
:1041A00094ED1C0A204600F0A0F92068FDF78CFF72
:1041B000E16B01FA80F06168E063B1F90C10A06B6B
:1041C0004018A063B4F84000B4F85C10401CA4F898
:1041D0004000606C401C6064B4F84000814280F094
:1041E0004C81E16BB4F8602091FBF0F0B4F848101A
:1041F000A4F84800091AA4F84A1009B2002948BFD7
:1042000049420020E063A4F84000606C8242A4BFF1
:1042100009B2052980F23181A16B91FBF0F0E082B7
:104220009FED970AB4F9480000EE900AF8EEE00A14
:1042300094F8760020EE800A00EE900AB4F914009B
:10424000F8EE600A20EE200A00EE900AB4F916009B
:1042500084ED070A01EE100AF8EEE00AB8EEC11A82
:1042600070EEC10A94ED061A31EE400A80EE800A23
:10427000DFED840AB4EE600A84ED080AF1EE10FA6C
:1042800048BFC4ED080A94ED060AD4ED070AB4F954
:104290001410B4F91620E06830EE600ADFEDE90A88
:1042A00020EE200A84ED090A8A42D4ED070A30EE96
:1042B000200A84ED090AB2BF00220022B4F9781066
:1042C000FEF734FD0020A4F84E000920D3E0B4F836
:1042D0004E00401CA4F84E002068FDF7F5FE00EEED
:1042E000900A94F876009FED660AF8EEE00A01EE77
:1042F000100A60EE800AB8EE411A60EE810A94ED71
:10430000091AF4EE410AF1EE10FA08DAB4F8740072
:10431000B4F84E1000EB4000884280F2AE80308846
:10432000A56800EE900AB4F84E0001EE100AF8EE0F
:10433000600AB8EE411A81EE201A84ED0A1AF6EEF0
:10434000001A81EE811AF3EE0E1A21EE211A84ED85
:104350000C1A94ED0A1AD4ED081A94F8760021EE9E
:10436000211A84ED0B1A1021D4ED0C1A21EE211A1A
:1043700021EE000A01EE100AB8EE411A20EE010A01
:1043800084ED190A102694ED0A1A80EE010A80EED7
:10439000200A84ED1A0A00270F2047F6FF72012336
:1043A00001E0102910D103FA00FC00EE10CAB8EEAB
:1043B000C00AD4ED190A20EE200ABDEEC00A10EEA4
:1043C000108A9045B8BF41B2B6B2102E10D103FA90
:1043D00000F700EE107AB8EEC00AD4ED1A0A20EE0B
:1043E000200ABDEEC00A10EE107A9742B8BF46B25E
:1043F000401E89B2D5D5102907D02846FEF743FCC8
:104400000FFA88F12846FEF72EFCB6B2102E07D020
:1044100031462846FEF73FFC39B22846FEF725FC18
:10442000B4F978102846FEF747FCB4F8780041420A
:1044300009B22846FEF73EFC2846FEF72AFCB4F8EF
:10444000781000FB01F631462846FEF731FC714238
:104450002846FEF72BFC012084F862000121E06869
:10446000FEF760FC2068FDF72FFE0146E0680022A1
:10447000FEF75CFC0A2084F83400BDE8F0810000FF
:104480009CC4203F0AD7233C10B5044694F8620030
:10449000A8B9616881F824000021E068FEF742FCB9
:1044A0006068B0F91010E0680022FEF73FFCE06899
:1044B000BDE810404FF47A620021FEF737BC10BD12
:1044C000002180F86210704790ED140A00F001BAE4
:1044D0000B20704790F83400704790F834000021AA
:1044E0000A2808BF01210846704730B5044681B04C
:1044F00000252DED048BD4F89C00D0ED098A2068AE
:10450000B0EE408AFDF7E0FD00EB4001480000EE10
:10451000100A94ED221AB8EEC09AB5EE401A38EEA1
:10452000490AD4ED210AF1EE10FA60EE800A08BFC4
:10453000C4F890500BD0D4ED251A70EE611A94EDAA
:10454000240A01EE810A84ED240A70EE800AB4F890
:10455000780001EE100AB8EE411AB4EE601AB0EE1F
:10456000600AF1EE10FA48BFB0EE410A404201EE97
:10457000100AB8EEC11AF4EE410AF1EE10FA48BF83
:10458000B0EE410A70EEC00A94ED231AE068BDEE69
:10459000C00A60EE810A10EE101AC4ED250A00224E
:1045A00009B2FEF7C3FB28EE280AB4EE409AF1EEFA
:1045B00010FA15D4B4EE489AF1EE10FA0AD4B0EE1F
:1045C000000A30EE680A20EE080AB4EE409AF1EED6
:1045D00010FA05D594F86C00401C84F86C0001E0DA
:1045E00084F86C5094F96C00142803DB142084F8D0
:1045F0006C000125BDEC048B284601B030BD80F86D
:1046000076107047A0F87810704780ED0C0A70475C
:1046100090ED0C0A7047000090ED0B0AD0F89C104A
:1046200091ED0F1ADFED180A20EE200AD0ED260AD0
:1046300020EE200AD1ED0E0A60EE810A80EE200AFB
:1046400070470000AE47213F90ED080AD0F89C105B
:1046500091ED0F1ADFED0C0A20EE200AD0ED260AAC
:1046600020EE200AD1ED0E0A60EE810A80EE200ACB
:104670007047000000300240453900088C000020DF
:104680000AC34C3033BB55AACB151E35B71DC10428
:1046900081390008713A0008E40B0020C0F880104E
:1046A000704780ED260A704790F86200704700005E
:1046B0005FF0FF0C1CEAD05114BF614506E0C11049
:1046C000400721F0E04101F16051704779B900F0F5
:1046D000004100020AD0B0FA80FC00FA0CF001F1AF
:1046E0006051A1EB0C5101EBD02140057047410214
:1046F0000CBF40F4E0016FF00001002070470000A3
:10470000B0B581EA030C0CF0004C40F2FF7515EADD
:1047100011541DBF15EA1357AC42AF4239E0E419FA
:1047200023EA455343F48013C90241F0004141EAB2
:10473000505EC7021100A7FB020200284FF00000E4
:10474000EEFB01204FF00001E3FB072118BF42F010
:104750000102401800214941E3FB0E01A4F58064E9
:104760000F0302D252004041494154F101046CDD73
:10477000470872F1004250F1000051EB0451A1F5DD
:1047800080115CBF41EA0C01B0BD4CEA055100202C
:10479000B0BD05EA1357AC4214BFAF4241E050EA46
:1047A000410E1CBF52EA430E02E061460020B0BD3C
:1047B00024423C441BD15FEA070EF6D0090302BF36
:1047C00001460020AEF1140EB1FA81F7AEEB0704FA
:1047D00001FA07FE0C37C7F1200100FA07F7C840BD
:1047E0004EEA000E23EA455343F48013A2E733F068
:1047F0000043B3FA83F704BFB2FA82FE77440B3F5B
:10480000E41BB7F1200E2FBF02FA0EF3BB40C7F135
:10481000200E22FA0EFE38BF43EA0E03BA40641C93
:1048200082E750EA410E14BF52EA430E6FF00001D6
:104830004FF4001717EB430F8ABF194617EB410FD0
:10484000B5E74CEA05510020B0BDD4F10104B4F144
:1048500020070FDAC4F12007520828BF42F00102F6
:1048600010FA07F501FA07F7E1BF2A43E0403843A1
:10487000E1400FE0352C98DCC7F1200452EA4002F9
:1048800020FA07F218BF42F0010231FA07F0A14006
:104890000A43002172F1004250F1000051EB0C017B
:1048A000B0BD00004FF4001C1CEB410F94BF1CEB8B
:1048B000430F09E041EA030C50EA4C0C52EA0C0C9D
:1048C00003D2994208BF9042704714BF8B42824284
:1048D00070472DED010A009801B07047010040F1CA
:1048E0000780F446404200F003F851F00041604771
:1048F00009D0B0FA80F18840C91CC1F5846109056E
:1049000001EBD02140057047F446400D40EAC1203C
:10491000490006D200F00EF8004248BF6FF0004098
:10492000604700F007F84FF0004188428CBF08460E
:104930004042604740F00040490DA1F58061491CAC
:1049400005D4D1F11F0154BFC840C01770474FF0C4
:10495000000070474FEAF17CBCF1E04C2CBFBCF585
:10496000001F11E05FEA4C0C34BFBCF17F5F2EE00A
:104970005FEA9C0C4FEA0C1C4FEA3C0CC10071F141
:1049800000414CEB50707047C90241EA5051C002DF
:1049900018BF41F0010141F000414FEA6C50C0F1F5
:1049A0000900212810D240EACC7CCCF1200C11FA6D
:1049B0000CF070F10040CCF1200C21FA0CF00CF05E
:1049C000004C40EB0C0070474FEACC707047490038
:1049D00011F5001F04D84FEACC10FF30C005704716
:1049E000C817704710B50C46FDF756FB5B490A78AF
:1049F000002A03BF0A1D01230B7000220FF22101C0
:104A00005461416082620FF21D0181605449C160AE
:104A10000FF2410101610FF2B501416110BD0000CB
:104A200000BF00BF00F11801002208690A804A8017
:104A30008A80CA800A818A72026042600281028290
:104A400002734273096949694988C1818274C274D9
:104A50007047000030B41C30C26814898368022C8F
:104A600019D3546815682C195460E51304EB1544E8
:104A7000241444805B89B0F90240634303EB830450
:104A80006300C479240493FBF4F30B80098801804C
:104A90001089401E13E0012C13D1B2F90A400C809A
:104AA00004805B89B1F9001003EB830409046300FF
:104AB00091FBF3F1C37911FB03F1418000201081D8
:104AC00001E000880880507B30BC704718300269D4
:104AD00011820A46C37A018092FBF3F2428070474A
:104AE000F0B41C30C36885685E691C7B9CBB0C04F9
:104AF00017000FD101806A8902EB82056A0094FBDE
:104B0000F2F2C47912FB04F242800020188159812C
:104B1000F0BC70473688134F7243A2FB0776720AC7
:104B2000521C1A8192B26D89C67905EB85077D000A
:104B300094FBF5F4B0F9025095FBF6F524B22DB2D2
:104B4000641B240494FBF2F272431A605981B0F999
:104B5000020000045860F0BC7047000044110020BF
:104B6000F10F0010986E1283012201290BD1836A84
:104B70001973816A4B69B3F9023023B94A73002172
:104B800080F82210002210467047806A90F80CC00E
:104B9000002200230021BCF1010F407B08BF01224D
:104BA000012808BF012393EA020018BF012108462B
:104BB0007047806A0121C17470470000002200F034
:104BC00007B800001FB500F01DF8212101601FBDCE
:104BD00000B500BF130096469446103928BFA0E8E0
:104BE0000C50FAD85FEA417C28BF0CC048BF40F89F
:104BF000042BC90728BF20F8022B48BF00F8012B5F
:104C000000BD0000014800F003B80000EC000020E7
:104C10007047000038B50D46FDF7ACFA0446DFF8E2
:104C2000FC0C0178002903BF011D01220270002144
:104C3000DFF8EC0DCD64616720602146A87B01F0B0
:104C4000BFF90FF275006060DFF8D80DA0600FF6B5
:104C50001120E0600FF6551020610FF24570606181
:104C60000FF6F100A061DFF8C00D2062DFF8BC0D87
:104C70006062DFF8BC0DA062DFF8B80DE062DFF81B
:104C8000B80D2063DFF8B40D60630FF6D910A06390
:104C90000FF6DD10E0630FF6F910E0610FF6452026
:104CA00020640FF66520A0640FF66930E0640FF60B
:104CB00071402065204632BD2DE9F04F82460AF151
:104CC000640099B00169DFF8789D0A91CD6C697A2A
:104CD00005F130060129D6F800B00CBF00210121F2
:104CE0000170C0680A99008801F10C084008A8F812
:104CF0000000DFF8500D016841F040010160012122
:104D0000686801F0E2FA01214FF4FC0001F0DDFADD
:104D10000121012001F0D9FACB4506D101214FF440
:104D2000006001F0DBFA002006E001214FF40050A2
:104D300001F0D4FA4FF0805001F0A4FA012001F004
:104D400051F95146584600F049FA684601F044FBD3
:104D5000A88A0090694603208DF80400286901F0B4
:104D600003FBA98A286901F042FBA88B00906946E1
:104D700003208DF80400A86901F0F6FAA98BA86950
:104D800001F035FBA88C0090694603208DF80400E3
:104D9000286A01F0E9FAA98C286A01F028FB308A18
:104DA000002101E04008491C0128FBD105F18004E5
:104DB000F068A27B89B201F027FBB08B002101E0F3
:104DC0004008491C0128FBD1E27BB06989B201F09F
:104DD0001BFB308D002101E04008491C0128FBD15C
:104DE000227C706A89B201F00FFB684601F0F4FA88
:104DF0000020ADF80600694602208DF8040005F198
:104E00005C0703208DF80500308A0090F06801F0FF
:104E1000ABFAB08B00906946B06901F0A5FA308D0D
:104E200000906946706A01F09FFA318AF06801F0DB
:104E3000DEFAB18BB06901F0DAFA318D706A01F0F7
:104E4000D6FA3878012842D13889002101E040089B
:104E5000491C0128FBD1627C786889B201F0D4FA40
:104E6000B88A002101E04008491C0128FBD1A27C3E
:104E7000386989B201F0C8FA388C002101E0400895
:104E8000491C0128FBD1E27CF86989B201F0BCFA27
:104E9000388900906946786801F066FAB88A00900F
:104EA0006946386901F060FA388C00906946F86903
:104EB00001F05AFA3989786801F099FAB98A3869A3
:104EC00001F095FA398CF86901F091FA25E0022891
:104ED00023D101208DF80400694638890090786854
:104EE00001F042FAB88A00906946386901F03CFA4C
:104EF000388C00906946F86901F036FA398978688B
:104F000001F075FAB98A386901F071FA398CF869DB
:104F100001F06DFA02208DF804002078012815D1E7
:104F2000A089002101E04008491C0128FBD1227D15
:104F3000A06889B201F068FAA08900906946A0686B
:104F400001F012FAA189A06801F051FAA07D0128B0
:104F500015D1208C002101E04008491C0128FBD11B
:104F6000627DE06989B201F04FFA208C00906946B9
:104F7000E06901F0F9F9218CE06901F038FACB45DC
:104F800007BF012101200121022001F051FA504602
:104F900000F0DAFD0020A8F838004FF0A044C8F86F
:104FA0003440204601F050FA0BA801F0C1FA00206D
:104FB0000B900BA928680C9000200D900E908DF896
:104FC0003C00204601F08CFA0121204601F0D0FA85
:104FD0000021204601F0C1FA204601F0B9FA20462E
:104FE00001F0C3FA0128FAD012208DF8080002203F
:104FF0008DF8090000208DF80A0001208DF80B00C3
:1050000002A801F01CFB0121204601F098FA10A82B
:1050100001F05BFA0020109011901290139010A9EB
:105020002020149000201590169001208DF85C002F
:10503000204601F02FFA0020039040200490022027
:105040008DF81400E87B0690E87D0790002008901A
:105050000990AA7DE97B204601F0A0FAAA7FE97DAC
:10506000204601F09BFA03A9204600F059FDC8F83C
:10507000180003A9E87D0690E87B0790204600F021
:105080004FFDC8F81C00E87B0690E87F0790AA7DDA
:10509000E97B204601F082FA95F82620E97F204638
:1050A00001F07CFA03A9204600F03AFDC8F8200080
:1050B00003A9E87F0690E87B0790204600F030FDCA
:1050C000C8F82400E87D0690E87F0790AA7FE97D74
:1050D000204601F063FA95F82620E97F204601F08A
:1050E0005DFA03A9204600F01BFDC8F8280003A9BB
:1050F000E87F0690E87D0790204600F011FDC8F893
:105100002C0003A9002003904020049001208DF87A
:105110001400E87B06900020079008900990204634
:1051200000F0FEFCC8F80800E87D069003A92046C0
:1051300000F0F6FCC8F80C0003A9E87F06902046B2
:1051400000F0EEFCC8F814000121204601F01DFA21
:10515000E06CB8F83810000A41EA002020F4F8505A
:1051600040F04100E0640021A06840F00800A06029
:10517000584601F09AFC4FF6FF70CBF8400008212A
:105180000020CBF84000584601F08FFC402120461B
:1051900001F038FA0028F9D04021204601F039FA10
:1051A00001224021204601F025FA306848450DD102
:1051B00018208DF8080004208DF8090001208DF8D2
:1051C0000A008DF80B0002A801F039FA0A9846305F
:1051D00000214170017019B0BDE8F08F2DE9F04F4A
:1051E00089B04F6FFD6C804601F062FA05A801F0AE
:1051F00020FB05F108064FF6FF7930784844ADF8FA
:10520000140005F12A042020ADF8160005A9B8897C
:1052100006904FF48070ADF81C002078ADF81E00A9
:10522000404601F0C4FA684601F0DBFB60200090C4
:105230000120ADF80400B8894008029005F15C0730
:10524000E089ADF80C00208BADF81000387801280B
:1052500009D10420ADF806007888ADF80E007889F1
:10526000ADF8120002E00020ADF8060069464046A5
:1052700001F0F2FA608BADF80C00A08CADF81000D4
:105280003878012805D1B889ADF80E00F88AADF854
:1052900012006946404601F017FBE08CADF80C00A7
:1052A000208EADF810003878012805D1388BADF884
:1052B0000E00788CADF812006946404601F038FBCC
:1052C00070200090CDF808900020ADF80C00ADF8EB
:1052D00010006946404601F05DFB0821404601F0A0
:1052E000CFFB0821404601F0D2FB0821404601F0E7
:1052F000D5FB0821404601F0D8FB7021404601F063
:10530000A8FC308C4008ADF8200005F18006002490
:10531000307815F8A2BF002701280CBFD6F804A0EA
:105320004FF4005A8021404601F089FC012280217F
:10533000404601F068FCB07D01004FF0000910D03C
:1053400001286F780CBFB4694FF000746FF480705F
:10535000C8F8100001228021404601F054FC4FF0B3
:105360008079BDF820004AEA000049EA00002043A5
:1053700040EA0B4040EA075040F4C850C8F84400E7
:105380001021404601F060FC0621404601F06CFC13
:105390000121404601F056FA09B0BDE8F08F000047
:1053A0002DE9F04780460020D8F87440DFF8F41B60
:1053B000D4F84C90D9F830502060606004F13C067D
:1053C000A060307008F10807286A084028624FF68C
:1053D000FD7A0FF221103860DFF8CC0BB861F8616C
:1053E00038627862B862F862606A2061404600F014
:1053F000DDF899F82A00C5F810A0401C400800EB21
:1054000000101FFA80F90020317810290ED2296986
:105410008907F9D5401C80B24845C5F810A0F3DBD8
:1054200031781029F0D20120A8F85E00404600F043
:1054300017F9002030700FF2F1003860206A206107
:10544000404600F0B3F8C5F810A0002031781029CC
:105450000ED229698907F9D5401C80B24845C5F8A4
:1054600010A0F3DB31781029F0D20120A8F85E00FB
:10547000404600F0F5F820680009206060680009E7
:105480006060A0680009A060DFF898053860DFF868
:105490009805B861DFF89405F861DFF89405386283
:1054A000DFF890057862DFF89005B862DFF88C05C8
:1054B000F862606A20614FF2F770A9690140A96142
:1054C000E9690840E861A0896863A089A863A089A8
:1054D000E86340F60800A9690143A961E969084346
:1054E000E86140F25551286A084328620020307371
:1054F000BDE8F087406FC26C126B4FF6FE71116110
:1055000000F13C010A78102A0CD24A68036852F86C
:1055100080CF6344036043685268D21842600878C1
:10552000401C087070470000406FC26C126B4FF651
:10553000FE71116100F13C010A78102A08D24B6813
:105540008268D3F880309A1882600878401C08700E
:105550007047000038B5406FC46C256B01212846A8
:1055600001F061FB00206863A863E863012128461D
:1055700001F052FB0028F9D0686C40F400406864E8
:1055800014F85C0F022810D121896068012200F014
:1055900036FFA18A2069012200F031FF218CE069E9
:1055A000BDE83840012200F02ABF31BDF8B50746FA
:1055B00001217D6FEE6C346B204601F034FB01213C
:1055C000204601F029FB0028F9D00121204601F0F6
:1055D0002AFB97F86500012804D16063296C2869CB
:1055E000C86402E0A88940086063A8894108A163F3
:1055F000E163401F20640121204601F00DFB0028DB
:10560000F9D0606C40F480606064606C40F40040ED
:10561000606416F85C0F02281DD170683189226A17
:1056200040F255531A4209D0012200F0E8FEB18A37
:105630003069012200F0E3FE012208E0002200F0C0
:10564000DEFEB18A3069002200F0D9FE0022318CE2
:10565000F06900F0D4FE296C2869C864F1BD00002F
:1056600070B5F9E1406FC26CD2F8B82004E00000D8
:10567000406FC26CD2F8BC2089011163116C042107
:10568000916011684907FCD5116CC181C0897047D0
:1056900032B4406FC06C9DF800209DF80110D0F826
:1056A000B8000A2A0DDB0A3A02EB4202836907249A
:1056B0009440A3438361914083691943816131BC64
:1056C0007047551E4369382405EB4505AC40A3439C
:1056D000436102EB4202436991401943416131BC8D
:1056E00070470000416F463100204A78012A02D1FC
:1056F000002202204A700A78012A03D1002240F0D9
:1057000040000A7070470000F0B5044687B0656F2E
:10571000EE6C94F86500376B002868D16022002198
:10572000384601F068F901220021384601F0C4F939
:1057300000220021384601F0C3F90021384601F06B
:105740007EF996F85C0001280CD11022042138461D
:1057500001F051F900220421384601F0ADF904228C
:1057600004210DE002280ED120220421384601F048
:1057700042F901220421384601F09EF90022042159
:10578000384601F09DF970220821384601F033F9BE
:1057900000220821384601F08FF9002208213846FE
:1057A00001F08EF92021384601F053FA00200090D4
:1057B0004020019002208DF8080006F117000178C2
:1057C000039101780491002105910691C279017835
:1057D0004FF0A04000F0E2FE01214FF0A04000F0A9
:1057E00000FF69464FF0A04000F09AF9E86104F12B
:1057F0000800DFF8B81701600FF2591101610FF2CC
:10580000A11181600FF24D214160012084F86500F3
:1058100007B0F0BDF8B50446666FF76C94F8650004
:105820003D6B012878D186480188C906FBD50188DF
:10583000C906FCD497F82A00288660220021284651
:1058400001F0D9F801220021284601F035F997F836
:105850005C00012802D10422002103E0022804D1C7
:1058600000220021284601F02BF9B0894108284682
:1058700001F0E5F860220421284601F0BCF801227D
:105880000421284601F018F997F85C00012802D19C
:105890000422042103E0022804D100220421284626
:1058A00001F00EF9B0894108284601F0CAF86022DB
:1058B0000821284601F09FF801220821284601F01E
:1058C000FBF897F85C00012808BF042202D00228E8
:1058D00004D100220821284601F0F2F8B0894108DD
:1058E000284601F0B0F87021284601F0B2F90021F5
:1058F0004FF0A04000F075FE04F108004949016036
:10590000DFF8AC160161DFF8AC168160DFF8A8168D
:105910004160002084F86500F1BD0000A80F002060
:1059200000F15802D069C36CB0F80CC01B6B01FBCE
:105930000CF1090C1180C169006CC16410885863B6
:105940001869D188012900F0010002D1002101204D
:10595000D180704738B5406FC46C256B00206863F8
:105960000121284601F05FF90121284601F054F990
:105970000028F9D0686C40F40040686414F85C0FAB
:1059800002280CD121896068012200F038FDA18A2B
:105990002069002200F033FD218CE06954E031BD24
:1059A00038B5406F2649C56C2C6B0A88D206FCD4EA
:1059B0000A88D206FCD50021218601216163C169D4
:1059C000006CC1644FF6FE7020610121204601F099
:1059D00023F90028F9D0606C40F480606064606C4A
:1059E00040F40040606415F85C0F022816D1686826
:1059F0002989226A40F255531A4204D0012200F04C
:105A0000FEFC012203E0002200F0F9FC0022A98A3A
:105A1000286900F0F4FC298CE86915E031BD00002C
:105A20009B0A0010E50500104B070010D10700107D
:105A300065080010F30800107D090010110A00101D
:105A4000002C014014100240BDE83840002200F054
:105A5000D6BC00002DE97040456F05F14800416853
:105A600000780C6B012817D0606C20F480606064B3
:105A700001F15C06307802280ED13189706800226D
:105A800000F0BDFCB18A3069002200F0B8FC318C16
:105A9000F069002200F0B3FC606C20F40040606408
:105AA0006FF0400255F8400F416811404160816835
:105AB00041F020018160C16CAA88090A42EA0121F3
:105AC00021F4F85141F04101C164816841F00801BD
:105AD00081602046002100F0E8FFE06948F6FF7190
